{
  "contractName": "Asn1Decode",
  "abi": [
    {
      "constant": true,
      "inputs": [],
      "name": "LOCATION_VALID_NOT_AFTER",
      "outputs": [
        {
          "name": "",
          "type": "bytes"
        }
      ],
      "payable": false,
      "stateMutability": "view",
      "type": "function"
    },
    {
      "constant": true,
      "inputs": [],
      "name": "LOCATION_SERIAL_NUMBER",
      "outputs": [
        {
          "name": "",
          "type": "bytes"
        }
      ],
      "payable": false,
      "stateMutability": "view",
      "type": "function"
    },
    {
      "constant": true,
      "inputs": [],
      "name": "COMMON_NAME",
      "outputs": [
        {
          "name": "",
          "type": "bytes"
        }
      ],
      "payable": false,
      "stateMutability": "view",
      "type": "function"
    },
    {
      "constant": true,
      "inputs": [],
      "name": "LOCATION_VALID_NOT_BEFORE",
      "outputs": [
        {
          "name": "",
          "type": "bytes"
        }
      ],
      "payable": false,
      "stateMutability": "view",
      "type": "function"
    },
    {
      "constant": true,
      "inputs": [],
      "name": "LOCATION_PUB_KEY",
      "outputs": [
        {
          "name": "",
          "type": "bytes"
        }
      ],
      "payable": false,
      "stateMutability": "view",
      "type": "function"
    },
    {
      "constant": true,
      "inputs": [
        {
          "name": "der",
          "type": "bytes"
        }
      ],
      "name": "root",
      "outputs": [
        {
          "name": "",
          "type": "uint256"
        }
      ],
      "payable": false,
      "stateMutability": "pure",
      "type": "function"
    },
    {
      "constant": true,
      "inputs": [
        {
          "name": "der",
          "type": "bytes"
        },
        {
          "name": "ptr",
          "type": "uint256"
        }
      ],
      "name": "nextSiblingOf",
      "outputs": [
        {
          "name": "",
          "type": "uint256"
        }
      ],
      "payable": false,
      "stateMutability": "pure",
      "type": "function"
    },
    {
      "constant": true,
      "inputs": [
        {
          "name": "der",
          "type": "bytes"
        },
        {
          "name": "ptr",
          "type": "uint256"
        }
      ],
      "name": "firstChildOf",
      "outputs": [
        {
          "name": "",
          "type": "uint256"
        }
      ],
      "payable": false,
      "stateMutability": "pure",
      "type": "function"
    },
    {
      "constant": true,
      "inputs": [
        {
          "name": "i",
          "type": "uint256"
        },
        {
          "name": "j",
          "type": "uint256"
        }
      ],
      "name": "isChildOf",
      "outputs": [
        {
          "name": "",
          "type": "bool"
        }
      ],
      "payable": false,
      "stateMutability": "pure",
      "type": "function"
    },
    {
      "constant": true,
      "inputs": [
        {
          "name": "der",
          "type": "bytes"
        },
        {
          "name": "location",
          "type": "bytes"
        }
      ],
      "name": "traverseTo",
      "outputs": [
        {
          "name": "",
          "type": "uint256"
        }
      ],
      "payable": false,
      "stateMutability": "pure",
      "type": "function"
    },
    {
      "constant": true,
      "inputs": [
        {
          "name": "der",
          "type": "bytes"
        },
        {
          "name": "ptr",
          "type": "uint256"
        }
      ],
      "name": "bytesAt",
      "outputs": [
        {
          "name": "",
          "type": "bytes"
        }
      ],
      "payable": false,
      "stateMutability": "pure",
      "type": "function"
    },
    {
      "constant": true,
      "inputs": [
        {
          "name": "der",
          "type": "bytes"
        },
        {
          "name": "ptr",
          "type": "uint256"
        }
      ],
      "name": "allBytesAt",
      "outputs": [
        {
          "name": "",
          "type": "bytes"
        }
      ],
      "payable": false,
      "stateMutability": "pure",
      "type": "function"
    },
    {
      "constant": true,
      "inputs": [
        {
          "name": "der",
          "type": "bytes"
        },
        {
          "name": "ptr",
          "type": "uint256"
        }
      ],
      "name": "uintAt",
      "outputs": [
        {
          "name": "",
          "type": "uint256"
        }
      ],
      "payable": false,
      "stateMutability": "pure",
      "type": "function"
    },
    {
      "constant": true,
      "inputs": [
        {
          "name": "bitstr",
          "type": "bytes"
        }
      ],
      "name": "decodeBitstring",
      "outputs": [
        {
          "name": "",
          "type": "bytes"
        }
      ],
      "payable": false,
      "stateMutability": "pure",
      "type": "function"
    },
    {
      "constant": true,
      "inputs": [
        {
          "name": "encodedUint",
          "type": "bytes"
        }
      ],
      "name": "decodeUint",
      "outputs": [
        {
          "name": "",
          "type": "uint256"
        }
      ],
      "payable": false,
      "stateMutability": "pure",
      "type": "function"
    }
  ],
  "bytecode": "0x6115b7610030600b82828239805160001a6073146000811461002057610022565bfe5b5030600052607381538281f30073000000000000000000000000000000000000000030146080604052600436106100f2576000357c0100000000000000000000000000000000000000000000000000000000900463ffffffff16806306197000146100f75780631d357890146101ad57806356b10aa21461023057806358f63b45146102aa5780635fdd22c71461032d5780636ff24701146103b057806379b1fb6b146104205780637dec8a3d146104f55780638b69449114610578578063b39db93d146105fb578063be2b0e4f14610675578063c177931e14610754578063c2e9e208146107ce578063d24654081461083e578063dc28c7b514610880575b600080fd5b610197600480360381019080803590602001908201803590602001908080601f0160208091040260200160405190810160405280939291908181526020018383808284378201915050505050509192919290803590602001908201803590602001908080601f016020809104026020016040519081016040528093929190818152602001838380828437820191505050505050919291929050505061095f565b6040518082815260200191505060405180910390f35b6101b5610b0f565b6040518080602001828103825283818151815260200191508051906020019080838360005b838110156101f55780820151818401526020810190506101da565b50505050905090810190601f1680156102225780820380516001836020036101000a031916815260200191505b509250505060405180910390f35b610294600480360381019080803590602001908201803590602001908080601f016020809104026020016040519081016040528093929190818152602001838380828437820191505050505050919291929080359060200190929190505050610b47565b6040518082815260200191505060405180910390f35b6102b2610b66565b6040518080602001828103825283818151815260200191508051906020019080838360005b838110156102f25780820151818401526020810190506102d7565b50505050905090810190601f16801561031f5780820380516001836020036101000a031916815260200191505b509250505060405180910390f35b610335610b9e565b6040518080602001828103825283818151815260200191508051906020019080838360005b8381101561037557808201518184015260208101905061035a565b50505050905090810190601f1680156103a25780820380516001836020036101000a031916815260200191505b509250505060405180910390f35b61040a600480360381019080803590602001908201803590602001908080601f0160208091040260200160405190810160405280939291908181526020018383808284378201915050505050509192919290505050610bd7565b6040518082815260200191505060405180910390f35b61047a600480360381019080803590602001908201803590602001908080601f0160208091040260200160405190810160405280939291908181526020018383808284378201915050505050509192919290505050610c94565b6040518080602001828103825283818151815260200191508051906020019080838360005b838110156104ba57808201518184015260208101905061049f565b50505050905090810190601f1680156104e75780820380516001836020036101000a031916815260200191505b509250505060405180910390f35b6104fd610e3d565b6040518080602001828103825283818151815260200191508051906020019080838360005b8381101561053d578082015181840152602081019050610522565b50505050905090810190601f16801561056a5780820380516001836020036101000a031916815260200191505b509250505060405180910390f35b610580610e75565b6040518080602001828103825283818151815260200191508051906020019080838360005b838110156105c05780820151818401526020810190506105a5565b50505050905090810190601f1680156105ed5780820380516001836020036101000a031916815260200191505b509250505060405180910390f35b61065f600480360381019080803590602001908201803590602001908080601f016020809104026020016040519081016040528093929190818152602001838380828437820191505050505050919291929080359060200190929190505050610ead565b6040518082815260200191505060405180910390f35b6106d9600480360381019080803590602001908201803590602001908080601f016020809104026020016040519081016040528093929190818152602001838380828437820191505050505050919291929080359060200190929190505050610fa1565b6040518080602001828103825283818151815260200191508051906020019080838360005b838110156107195780820151818401526020810190506106fe565b50505050905090810190601f1680156107465780820380516001836020036101000a031916815260200191505b509250505060405180910390f35b6107b8600480360381019080803590602001908201803590602001908080601f0160208091040260200160405190810160405280939291908181526020018383808284378201915050505050509192919290803590602001909291905050506110be565b6040518082815260200191505060405180910390f35b610828600480360381019080803590602001908201803590602001908080601f01602080910402602001604051908101604052809392919081815260200183838082843782019150505050505091929192905050506110da565b6040518082815260200191505060405180910390f35b61086660048036038101908080359060200190929190803590602001909291905050506110ee565b604051808215151515815260200191505060405180910390f35b6108e4600480360381019080803590602001908201803590602001908080601f01602080910402602001604051908101604052809392919081815260200183838082843782019150505050505091929192908035906020019092919050505061115f565b6040518080602001828103825283818151815260200191508051906020019080838360005b83811015610924578082015181840152602081019050610909565b50505050905090810190601f1680156109515780820380516001836020036101000a031916815260200191505b509250505060405180910390f35b60008060008061096e866110da565b9250600091505b84518260ff161015610b0357600060028360ff1681151561099257fe5b0660ff161415610a4b57600090505b848260ff168151811015156109b257fe5b9060200101517f010000000000000000000000000000000000000000000000000000000000000090047f0100000000000000000000000000000000000000000000000000000000000000027f0100000000000000000000000000000000000000000000000000000000000000900460ff168160ff161015610a4657610a378684610b47565b925080806001019150506109a1565b610af6565b600090505b848260ff16815181101515610a6157fe5b9060200101517f010000000000000000000000000000000000000000000000000000000000000090047f0100000000000000000000000000000000000000000000000000000000000000027f0100000000000000000000000000000000000000000000000000000000000000900460ff168160ff161015610af557610ae68684610ead565b92508080600101915050610a50565b5b8180600101925050610975565b82935050505092915050565b6040805190810160405280600581526020017e0204010100000000000000000000000000000000000000000000000000000081525081565b6000610b5e836001610b588561127c565b0161129a565b905092915050565b6040805190810160405280600381526020017e0201000000000000000000000000000000000000000000000000000000000081525081565b6040805190810160405280600381526020017f550403000000000000000000000000000000000000000000000000000000000081525081565b6000806000809150600090505b83518160ff161015610c8a576008829060020a029150838160ff16815181101515610c0b57fe5b9060200101517f010000000000000000000000000000000000000000000000000000000000000090047f0100000000000000000000000000000000000000000000000000000000000000027f01000000000000000000000000000000000000000000000000000000000000009004821791508080600101915050610be4565b8192505050919050565b6060806000807f010000000000000000000000000000000000000000000000000000000000000002846000815181101515610ccb57fe5b9060200101517f010000000000000000000000000000000000000000000000000000000000000090047f0100000000000000000000000000000000000000000000000000000000000000027effffffffffffffffffffffffffffffffffffffffffffffffffffffffffffff1916141515610d4457600080fd5b60018451036040519080825280601f01601f191660200182016040528015610d7b5781602001602082028038833980820191505090505b509150600090505b8151811015610e33578360018201815181101515610d9d57fe5b9060200101517f010000000000000000000000000000000000000000000000000000000000000090047f0100000000000000000000000000000000000000000000000000000000000000028282815181101515610df657fe5b9060200101907effffffffffffffffffffffffffffffffffffffffffffffffffffffffffffff1916908160001a9053508080600101915050610d83565b8192505050919050565b6040805190810160405280600481526020017e0204010000000000000000000000000000000000000000000000000000000081525081565b6040805190810160405280600381526020017e0206000000000000000000000000000000000000000000000000000000000081525081565b600060207f01000000000000000000000000000000000000000000000000000000000000000260207f01000000000000000000000000000000000000000000000000000000000000000284610f0185611533565b815181101515610f0d57fe5b9060200101517f010000000000000000000000000000000000000000000000000000000000000090047f010000000000000000000000000000000000000000000000000000000000000002167effffffffffffffffffffffffffffffffffffffffffffffffffffffffffffff1916141515610f8757600080fd5b610f9983610f9484611549565b61129a565b905092915050565b6060600060606000610fb285611549565b6001610fbd8761127c565b01039250826040519080825280601f01601f191660200182016040528015610ff45781602001602082028038833980820191505090505b509150600090505b828110156110b257858161100f87611549565b0181518110151561101c57fe5b9060200101517f010000000000000000000000000000000000000000000000000000000000000090047f010000000000000000000000000000000000000000000000000000000000000002828281518110151561107557fe5b9060200101907effffffffffffffffffffffffffffffffffffffffffffffffffffffffffffff1916908160001a9053508080600101915050610ffc565b81935050505092915050565b60006110d26110cd8484610fa1565b610bd7565b905092915050565b60006110e782600061129a565b9050919050565b60006110f982611533565b61110284611549565b1115801561112057506111148361127c565b61111d8361127c565b11155b80611157575061112f83611533565b61113883611549565b11158015611156575061114a8261127c565b6111538461127c565b11155b5b905092915050565b606060006060600061117085611533565b600161117b8761127c565b01039250826040519080825280601f01601f1916602001820160405280156111b25781602001602082028038833980820191505090505b509150600090505b828110156112705785816111cd87611533565b018151811015156111da57fe5b9060200101517f010000000000000000000000000000000000000000000000000000000000000090047f010000000000000000000000000000000000000000000000000000000000000002828281518110151561123357fe5b9060200101907effffffffffffffffffffffffffffffffffffffffffffffffffffffffffffff1916908160001a90535080806001019150506111ba565b81935050505092915050565b600060a0829060020a900469ffffffffffffffffffff169050919050565b600080600080600080606060008960018a018151811015156112b857fe5b9060200101517f010000000000000000000000000000000000000000000000000000000000000090047f0100000000000000000000000000000000000000000000000000000000000000027f01000000000000000000000000000000000000000000000000000000000000009004965060007f01000000000000000000000000000000000000000000000000000000000000000260807f0100000000000000000000000000000000000000000000000000000000000000028b60018c0181518110151561138157fe5b9060200101517f010000000000000000000000000000000000000000000000000000000000000090047f010000000000000000000000000000000000000000000000000000000000000002167effffffffffffffffffffffffffffffffffffffffffffffffffffffffffffff1916141561140b578695506002890194506001868601039350611519565b607f87169250826040519080825280601f01601f1916602001820160405280156114445781602001602082028038833980820191505090505b509150600090505b828110156114fd57898160028b010181518110151561146757fe5b9060200101517f010000000000000000000000000000000000000000000000000000000000000090047f01000000000000000000000000000000000000000000000000000000000000000282828151811015156114c057fe5b9060200101907effffffffffffffffffffffffffffffffffffffffffffffffffffffffffffff1916908160001a905350808060010191505061144c565b61150682610bd7565b95508260028a0101945060018686010393505b611524898686611567565b97505050505050505092915050565b60008169ffffffffffffffffffff169050919050565b60006050829060020a900469ffffffffffffffffffff169050919050565b60006050839060020a028417935060a0829060020a028417935083905093925050505600a165627a7a723058206b59d36efab07e58386598261b128dadcf99c545f9f34133838168cc6f67409a0029",
  "source": "pragma solidity  ^0.4.23;\n\nlibrary NodePtr {\n  // Unpack first byte index\n  function ixs(uint self) internal pure returns (uint) {\n    return uint80(self);\n  }\n  // Unpack first content byte index\n  function ixf(uint self) internal pure returns (uint) {\n    return uint80(self>>80);\n  }\n  // Unpack last content byte index\n  function ixl(uint self) internal pure returns (uint) {\n    return uint80(self>>160);\n  }\n  // Pack 3 uint80s into a uint256\n  function getPtr(uint _ixs, uint _ixf, uint _ixl) internal pure returns (uint) {\n    _ixs |= _ixf<<80;\n    _ixs |= _ixl<<160;\n    return _ixs;\n  }\n}\n\nlibrary Asn1Decode {\n  using NodePtr for uint;\n\n  /*\n   * @dev Get the root node. First step in traversing an asn1 structure\n   * @param der The der-encoded asn1 structure\n   * @return a NodePtr object pointing to the outermost node\n   */\n  function root(bytes der) public pure returns (uint) {\n  \treturn asn1_read_length(der, 0);\n  }\n\n  /*\n   * @dev Get the next sibling node\n   * @param der The der-encoded asn1 structure\n   * @param ptr Points to the indices of the current node\n   * @return a NodePtr object pointing to the next sibling node\n   */\n  function nextSiblingOf(bytes der, uint ptr) public pure returns (uint) {\n  \treturn asn1_read_length(der, ptr.ixl()+1);\n  }\n\n  /*\n   * @dev Get the first child node of the current node\n   * @param der The der-encoded asn1 structure\n   * @param ptr Points to the indices of the current node\n   * @return a NodePtr object pointing to the first child node\n   */\n  function firstChildOf(bytes der, uint ptr) public pure returns (uint) {\n    // Can only open constructed types\n  \trequire(der[ptr.ixs()] & 0x20 == 0x20);\n  \treturn asn1_read_length(der, ptr.ixf());\n  }\n\n  /*\n   * @dev Returns true if j is child of i or if i is child of j. Used for looping\n   * through children of a given node (either i or j).\n   *\n   * @param i Pointer to an asn1 node\n   * @param j Pointer to another asn1 node of the same asn1 structure\n   * @return Whether i or j is the direct child of the other.\n   */\n  function isChildOf(uint i/*aka self*/, uint j) public pure returns (bool) {\n  \treturn ( ((i.ixf() <= j.ixs()) && (j.ixl() <= i.ixl())) ||\n             ((j.ixf() <= i.ixs()) && (i.ixl() <= j.ixl())) );\n  }\n  /*\n   * @dev Traverses a der-encoded chunk of bytes by repeatedly using next() and\n   * firstChild() in an alternating fashion.\n   *\n   * @param der The der-encoded asn1 structure to traverse\n   * @param location The encoded traversal instructions\n   *    - every even-index byte performes a next() operation a number of\n          times equal to its value\n   *    - every odd-index byte performs a firstChild() operation a number of\n          times equal to its value\n   *    ex: \\x00\\x02\\x01 performs root() then  (0 x next()) then\n          (2 x firstChild()) then (1 x next())\n   *\n   *  @return a NodePtr struct pointing to the index of the node traversed to\n   */\n   bytes constant public COMMON_NAME = \"\\x55\\x04\\x03\";\n   // shortcuts to commonly used X509 nodes\n   bytes constant public LOCATION_SERIAL_NUMBER = '\\x00\\x02\\x01';\n   bytes constant public LOCATION_VALID_NOT_BEFORE = '\\x00\\x02\\x04\\x01';\n   bytes constant public LOCATION_VALID_NOT_AFTER = '\\x00\\x02\\x04\\x01\\x01';\n   bytes constant public LOCATION_PUB_KEY = '\\x00\\x02\\x06';\n  function traverseTo(bytes der, bytes location) public pure returns (uint) {\n    uint ptr;\n    uint8 j;\n    uint8 k;\n\n    ptr = root(der);\n    for (j=0; j<location.length; j++) {\n      if (j % 2 == 0) {\n        for (k=0; k<uint8(location[j]); k++) {\n          ptr = nextSiblingOf(der, ptr);\n        }\n      } else {\n        for (k=0; k<uint8(location[j]); k++) {\n          ptr = firstChildOf(der, ptr);\n        }\n      }\n    }\n    return ptr;\n  }\n\n  /*\n   * @dev Extract value of node from der-encoded structure\n   * @param der The der-encoded asn1 structure\n   * @param ptr Points to the indices of the current node\n   * @return value bytes of node\n   */\n  function bytesAt(bytes der, uint ptr) public pure returns (bytes) {\n    uint valueLength = ptr.ixl() + 1 - ptr.ixf();\n    bytes memory ret = new bytes(valueLength);                 // currently there cannot be dynamic arrays in memory. This will need to be changed next protocol update\n    for (uint i=0; i<valueLength; i++) {\n      ret[i] = der[ptr.ixf() + i];\n    }\n  \treturn ret;\n  }\n\n  /*\n   * @dev Extract node from der-encoded structure\n   * @param der The der-encoded asn1 structure\n   * @param ptr Points to the indices of the current node\n   * @return bytes of node\n   */\n  function allBytesAt(bytes der, uint ptr) public pure returns (bytes) {\n    uint valueLength = ptr.ixl() + 1 - ptr.ixs();\n    bytes memory ret = new bytes(valueLength);                 // currently there cannot be dynamic arrays in memory. This will need to be changed next protocol update\n    for (uint i=0; i<valueLength; i++) {\n      ret[i] = der[ptr.ixs() + i];\n    }\n  \treturn ret;\n  }\n\n  function uintAt(bytes der, uint ptr) public pure returns (uint) {\n    return decodeUint(bytesAt(der, ptr));\n  }\n\n  function decodeBitstring(bytes bitstr) public pure returns (bytes) {\n    // Only 00 padded bitstr can be converted to bytestr!\n  \trequire(bitstr[0] == 0x00);\n  \tbytes memory ret = new bytes(bitstr.length-1);\n    for (uint i=0; i<ret.length; i++) {\n      ret[i] = bitstr[i+1];\n    }\n  \treturn ret;\n  }\n\n  // Might need to be looked at / tested thoroughly\n  function decodeUint(bytes encodedUint) public pure returns (uint) {\n    uint i = 0;\n    for (uint8 j=0; j<encodedUint.length; j++) {\n      i <<= 8;\n  \ti |= uint(encodedUint[j]);\n    }\n  \treturn i;\n  }\n\n  function asn1_read_length(bytes der, uint ix) private pure returns (uint) {\n  \tuint first = uint(der[ix+1]);\n    uint length;\n    uint ix_first_content_byte;\n    uint ix_last_content_byte;\n  \tif ((der[ix+1] & 0x80) == 0) {\n  \t\tlength = first;\n  \t\tix_first_content_byte = ix+2;\n  \t\tix_last_content_byte = ix_first_content_byte + length -1;\n    } else {  // -------------------- not thoroughly tested!! ------------------\n      uint lengthbytesLength = first & 0x7F;\n      bytes memory lengthbytes = new bytes(lengthbytesLength);\n      for (uint i=0; i<lengthbytesLength; i++) {\n          lengthbytes[i] = der[ix+2 + i];\n      }\n  \t\tlength = decodeUint(lengthbytes);\n  \t\tix_first_content_byte = ix+2+lengthbytesLength;\n  \t\tix_last_content_byte = ix_first_content_byte + length -1;\n    } // -----------------------------------------------------------------------\n    return NodePtr.getPtr(ix, ix_first_content_byte, ix_last_content_byte);\n  }\n}\n",
  "sourcePath": "/home/jonah/asn1-decode/contracts/Asn1Decode.sol",
  "compiler": {
    "name": "solc",
    "version": "0.4.25+commit.59dbf8f1.Emscripten.clang"
  },
  "schemaVersion": "3.0.0-beta.1",
  "updatedAt": "2018-11-23T05:14:33.535Z"
}