{
  "contractName": "NodePtr",
  "abi": [
    {
      "constant": true,
      "inputs": [
        {
          "name": "self",
          "type": "uint256"
        }
      ],
      "name": "ixs",
      "outputs": [
        {
          "name": "",
          "type": "uint256"
        }
      ],
      "payable": false,
      "stateMutability": "pure",
      "type": "function"
    },
    {
      "constant": true,
      "inputs": [
        {
          "name": "self",
          "type": "uint256"
        }
      ],
      "name": "ixf",
      "outputs": [
        {
          "name": "",
          "type": "uint256"
        }
      ],
      "payable": false,
      "stateMutability": "pure",
      "type": "function"
    },
    {
      "constant": true,
      "inputs": [
        {
          "name": "self",
          "type": "uint256"
        }
      ],
      "name": "ixl",
      "outputs": [
        {
          "name": "",
          "type": "uint256"
        }
      ],
      "payable": false,
      "stateMutability": "pure",
      "type": "function"
    },
    {
      "constant": true,
      "inputs": [
        {
          "name": "_ixs",
          "type": "uint256"
        },
        {
          "name": "_ixf",
          "type": "uint256"
        },
        {
          "name": "_ixl",
          "type": "uint256"
        }
      ],
      "name": "getPtr",
      "outputs": [
        {
          "name": "",
          "type": "uint256"
        }
      ],
      "payable": false,
      "stateMutability": "pure",
      "type": "function"
    }
  ],
  "bytecode": "0x610204610030600b82828239805160001a6073146000811461002057610022565bfe5b5030600052607381538281f3007300000000000000000000000000000000000000003014608060405260043610610079576000357c0100000000000000000000000000000000000000000000000000000000900463ffffffff16806332b5ec941461007e578063c8115200146100b2578063d47ab98b146100e6578063e1f544e61461011a575b600080fd5b61009c60048036038101908080359060200190929190505050610162565b6040518082815260200191505060405180910390f35b6100d060048036038101908080359060200190929190505050610178565b6040518082815260200191505060405180910390f35b61010460048036038101908080359060200190929190505050610196565b6040518082815260200191505060405180910390f35b61014c6004803603810190808035906020019092919080359060200190929190803590602001909291905050506101b4565b6040518082815260200191505060405180910390f35b60008169ffffffffffffffffffff169050919050565b600060a0829060020a900469ffffffffffffffffffff169050919050565b60006050829060020a900469ffffffffffffffffffff169050919050565b60006050839060020a028417935060a0829060020a028417935083905093925050505600a165627a7a72305820d63bb7796211928b6fdd981fe63da24efee1a72fd17e01442a70dd4bc8d680280029",
  "source": "pragma solidity  ^0.4.23;\n\nlibrary NodePtr {\n  function ixs(uint self) public pure returns (uint) {\n    return uint80(self);\n  }\n  function ixf(uint self) public pure returns (uint) {\n    return uint80(self>>80);\n  }\n  function ixl(uint self) public pure returns (uint) {\n    return uint80(self>>160);\n  }\n  function getPtr(uint _ixs, uint _ixf, uint _ixl) public pure returns (uint) {\n    _ixs |= _ixf<<80;\n    _ixs |= _ixl<<160;\n    return _ixs;\n  }\n}\n\ncontract Asn1Decode {\n  using NodePtr for uint;\n\n  /*\n   * First step in traversing an asn1 structure\n   *\n   * @param der The der-encoded asn1 structure\n   * @return a NodePtr object pointing to the outermost node\n   */\n  function nodeRoot(bytes der) public pure returns (uint) {\n  \treturn asn1_read_length(der, 0);\n  }\n\n  /*\n   * Get the next sibling node\n   *\n   * @param der The der-encoded asn1 structure\n   * @param n The current node\n   * @return a NodePtr object pointing to the next sibling node\n   */\n  function nodeNext(uint self, bytes der) public pure returns (uint) {\n  \treturn asn1_read_length(der, self.ixl()+1);\n  }\n\n  /*\n   * Get the first child node of the current node\n   *\n   * @param der The der-encoded asn1 structure\n   * @param n The current node\n   * @return a NodePtr object pointing to the next sibling node\n   */\n  function nodeFirstChild(uint self, bytes der) public pure returns (uint) {\n    // Can only open constructed types\n  \trequire(der[self.ixs()] & 0x20 == 0x20);\n  \treturn asn1_read_length(der, self.ixf());\n  }\n\n  /*\n   * Returs true if j is child of i or if i is child of j. Used for looping\n   * through children of a given node (either i or j).\n   *\n   * @param i Pointer to an asn1 node\n   * @param j Pointer to another asn1 node of the same asn1 structure\n   * @return weather i or j is the direct child of the other.\n   */\n  function nodeIsChildOf(uint i, uint j) public pure returns (bool) {\n  \treturn ( ((i.ixf() <= j.ixs()) && (j.ixl() <= i.ixl())) ||\n             ((j.ixf() <= i.ixs()) && (i.ixl() <= j.ixl())) );\n  }\n  /*\n   * @dev Traverses a der-encoded chunk of bytes by repeatedly using nodeNext and\n   * nodeFirstChild in an alternating fashion.\n   *\n   * @param der The der-encoded asn1 structure to traverse\n   * @param location The encoded traversal instructions\n   *    - every even-index byte performes a nodeNext() operation a number of\n          times equal to its value\n   *    - every odd-index byte performs a nodeFirstChild() operation a number of\n          times equal to its value\n   *    ex: \\x00\\x02\\x01 performs nodeRoot() then  (0 x nodeNext()) then\n          (2 x nodeFirstChild()) then (1 x nodeNext())\n   *\n   *  @return a NodePtr struct pointing to the index of the node traversed to\n   */\n   bytes constant public COMMON_NAME = \"\\x55\\x04\\x03\";\n   // shortcuts to commonly used X509 nodes\n   bytes constant public LOCATION_SERIAL_NUMBER = '\\x00\\x02\\x01';\n   bytes constant public LOCATION_VALID_NOT_BEFORE = '\\x00\\x02\\x04\\x01';\n   bytes constant public LOCATION_VALID_NOT_AFTER = '\\x00\\x02\\x04\\x01\\x01';\n   bytes constant public LOCATION_PUB_KEY = '\\x00\\x02\\x06';\n  function nodeTraverse(bytes der, bytes location) public pure returns (uint) {\n    uint i;\n    uint8 j;\n    uint8 k;\n\n    i = nodeRoot(der);\n    for (j=0; j<location.length; j++) {\n      if (j % 2 == 0) {\n        for (k=0; k<uint8(location[j]); k++) {\n          i = nodeNext(i, der);\n        }\n      } else {\n        for (k=0; k<uint8(location[j]); k++) {\n          i = nodeFirstChild(i, der);\n        }\n      }\n    }\n\n    return i;\n  }\n\n  // Get the value of the node\n  function getValue(uint self, bytes der) public pure returns (bytes) {\n    uint valueLength = self.ixl() + 1 - self.ixf();\n    bytes memory ret = new bytes(valueLength);                 // currently there cannot be dynamic arrays in memory. This will need to be changed next protocol update\n    for (uint i=0; i<valueLength; i++) {\n      ret[i] = der[self.ixf() + i];\n    }\n  \treturn ret;\n  }\n\n  // Get the entire node\n  function getAll(uint self, bytes der) public pure returns (bytes) {\n    uint valueLength = self.ixl() + 1 - self.ixs();\n    bytes memory ret = new bytes(valueLength);                 // currently there cannot be dynamic arrays in memory. This will need to be changed next protocol update\n    for (uint i=0; i<valueLength; i++) {\n      ret[i] = der[self.ixs() + i];\n    }\n  \treturn ret;\n  }\n\n  function decodeBitstring(bytes bitstr) public pure returns (bytes) {\n    // Only 00 padded bitstr can be converted to bytestr!\n  \trequire(bitstr[0] == 0x00);\n  \tbytes memory ret = new bytes(bitstr.length-1);\n    for (uint i=0; i<ret.length; i++) {\n      ret[i] = bitstr[i+1];\n    }\n  \treturn ret;\n  }\n\n  // Might need to be looked at / tested thoroughly\n  function decodeUint(bytes encodedUint) public pure returns (uint) {\n    uint i = 0;\n    for (uint8 j=0; j<encodedUint.length; j++) {\n      i <<= 8;\n  \ti |= uint(encodedUint[j]);\n    }\n  \treturn i;\n  }\n\n  // helper func\n  function asn1_read_length(bytes der, uint ix) private pure returns (uint) {\n  \tuint first = uint(der[ix+1]);\n    uint length;\n    uint ix_first_content_byte;\n    uint ix_last_content_byte;\n  \tif ((der[ix+1] & 0x80) == 0) {\n  \t\tlength = first;\n  \t\tix_first_content_byte = ix+2;\n  \t\tix_last_content_byte = ix_first_content_byte + length -1;\n    } else {  // -------------------- not thoroughly tested!! ------------------\n      uint lengthbytesLength = first & 0x7F;\n      bytes memory lengthbytes = new bytes(lengthbytesLength);\n      for (uint i=0; i<lengthbytesLength; i++) {\n          lengthbytes[i] = der[ix+2 + i];\n      }\n  \t\tlength = decodeUint(lengthbytes);\n  \t\tix_first_content_byte = ix+2+lengthbytesLength;\n  \t\tix_last_content_byte = ix_first_content_byte + length -1;\n    } // -----------------------------------------------------------------------\n    return NodePtr.getPtr(ix, ix_first_content_byte, ix_last_content_byte);\n  }\n}\n",
  "sourcePath": "/home/jonah/asn1-decode/contracts/Asn1Decode.sol",
  "compiler": {
    "name": "solc",
    "version": "0.4.25+commit.59dbf8f1.Emscripten.clang"
  },
  "schemaVersion": "3.0.0-beta.1",
  "updatedAt": "2018-11-21T18:12:00.982Z"
}